:100000000C945D000C9485000C9485000C94850084
:100010000C9485000C9485000C9485000C9485004C
:100020000C9485000C9485000C9485000C94B40706
:100030000C9485000C9485000C9485000C9485002C
:100040000C9412070C9485000C9482070C945C07A6
:100050000C9485000C9485000C9485000C9485000C
:100060000C9470080C948500000000080002010048
:100070000003040700000000000000000000000072
:10008000250028002B0000000000240027002A0083
:10009000040404040404040402020202020203032E
:1000A0000303030301020408102040800102040836
:1000B00010200102040810208F0911241FBECFEF69
:1000C000D8E0DEBFCDBF11E0A0E0B1E0E0EDF8E1A7
:1000D00002C005900D92A832B107D9F722E0A8E23C
:1000E000B1E001C01D92A93EB207E1F710E0CDE5F5
:1000F000D0E004C02197FE010E94600CCC35D107EE
:10010000C9F70E942B0A0C94660C0C94000090E036
:10011000FC01EC55FF4F249180579F4FFC018491C7
:10012000882399F090E0880F991FFC01EA57FF4F50
:10013000A591B491FC01E458FF4F859194918FB73C
:10014000F894EC91E22BEC938FBF0895FC01538D52
:10015000448D252F30E0842F90E0821B930B5417A1
:1001600010F0CF96089501970895FC01918D828D2E
:10017000981761F0A28DAE0FBF2FB11D5D968C91C7
:10018000928D9F5F9F73928F90E008958FEF9FEF06
:100190000895FC01918D828D981731F0828DE80FC2
:1001A000F11D858D90E008958FEF9FEF0895FC017C
:1001B000918D228D892F90E0805C9F4F821B910949
:1001C0008F7399270895FC01A48DA80FB92FB11D35
:1001D000A35ABF4F2C91848D90E001968F7399277D
:1001E000848FA689B7892C93A089B1898C9183705B
:1001F00080648C93938D848D981306C00288F38954
:10020000E02D80818F7D80830895EF92FF920F9380
:100210001F93CF93DF93EC0181E0888F9B8D8C8DB2
:1002200098131AC0E889F989808185FF15C09FB7A6
:10023000F894EE89FF896083E889F9898081837069
:10024000806480839FBF81E090E0DF91CF911F9118
:100250000F91FF90EF900895F62E0B8D10E00F5F39
:100260001F4F0F731127E02E8C8D8E110CC00FB60F
:1002700007FCFACFE889F989808185FFF5CFCE01A7
:100280000E94E300F1CFEB8DEC0FFD2FF11DE35A3F
:10029000FF4FF0829FB7F8940B8FEA89FB8980812A
:1002A0008062CFCFCF93DF93EC01888D8823B9F0A4
:1002B000AA89BB89E889F9898C9185FD03C0808171
:1002C00086FD0DC00FB607FCF7CF8C9185FFF2CFEE
:1002D000808185FFEDCFCE010E94E300E9CFDF9161
:1002E000CF9108958CEE91E00E94D70021E0892BF8
:1002F00009F420E0822F089580E090E0892B29F016
:100300000E94720181110C940000089590E0FC019C
:10031000E859FF4F2491FC01EC55FF4F3491FC014B
:10032000E057FF4FE491EE23C9F0222339F0233048
:1003300001F1A8F4213019F1223029F1F0E0EE0F9B
:10034000FF1FE458FF4FA591B4918FB7F894EC913B
:10035000611126C030953E233C938FBF089527300E
:10036000A9F02830C9F0243049F7809180008F7DB2
:1003700003C0809180008F7780938000DFCF84B5A9
:100380008F7784BDDBCF84B58F7DFBCF8091B000AC
:100390008F778093B000D2CF8091B0008F7DF9CF5E
:1003A0003E2BDACF3FB7F894809198019091990154
:1003B000A0919A01B0919B0126B5A89B05C02F3F43
:1003C00019F00196A11DB11D3FBFBA2FA92F982F7B
:1003D0008827BC01CD01620F711D811D911D42E076
:1003E000660F771F881F991F4A95D1F708950895C2
:1003F0000895AF92BF92CF92DF92EF92FF920F9348
:100400001F93CF93DF936C017B018B01040F151FAA
:10041000EB015E01AE18BF08C017D10759F0699112
:10042000D601ED91FC910190F081E02DC601099576
:10043000892B79F7C501DF91CF911F910F91FF9023
:10044000EF90DF90CF90BF90AF900895CF92DF9262
:10045000EF92FF92CF93DF93EC01603282E0780756
:10046000CCF5653B710514F064EB70E0898128E8F8
:1004700030E0281B310987FD3395220F331F220FEF
:10048000331F6901330FEE08FF088A8128E532E047
:10049000281B310987FD3395220F331F220F331F8D
:1004A000032E000C440B550B2C193D094E095F0916
:1004B000DB0177FF02C0B0E0A0E00E941B0C24EB40
:1004C00030E040E050E00E94F10BC20ED31EE41E6B
:1004D000F51EB601E881EC3070F5298188E890E0DE
:1004E000821B910927FD9395880F991F880F991FEB
:1004F000681779077CF02A8188E592E0821B9109D0
:1005000027FD9395880F991F880F991F6817790702
:100510000CF4CB010297880F991F4FB7F8942E2F38
:1005200030E0F901EE0FFF1FE20FF31FEB56FD4F16
:10053000928381834FBFDF91CF91FF90EF90DF9047
:10054000CF900895892B79F41092800082E08093F7
:1005500081001092850010928400B19A80916F0002
:10056000826080936F00089520914901260F332700
:10057000331F21323105ECF42091C201FC0190E0DF
:1005800080E0243069F082E00895A0914901219132
:10059000AC01475D5E4FA40FB52FB11D2C930196A2
:1005A000861798F380914901680F6093490180E0B4
:1005B000089581E008951092C20181E08093C10105
:1005C00010929C0161E082E10E94860161E083E17A
:1005D0000E948601E9EBF0E080818E7F808380813C
:1005E0008D7F808388E48093B80085E48093BC008D
:1005F0000895CF93DF9391E0909328018823B9F079
:10060000C091B800D091BA008091BC008A7B8093E1
:10061000BC0060E082E10E94860160E083E10E940C
:1006200086010E94DB02D093BA00C093B800DF912C
:10063000CF9108958F929F92AF92BF92CF92DF9207
:10064000EF92FF920F931F93CF93DF93D091EB0123
:10065000D13208F0D7C0182FC091EA010E94D20110
:100660006B017C018091C20181116BC082E080939B
:10067000C2011093C1018FEF8093C0011092BF019E
:10068000D093BE01AAECB1E0EEE9F1E080E0D8132E
:1006900091C010929D0180919D01CC0FC82BC093F9
:1006A0009D0180919C01813009F088C010929C01CD
:1006B0000E94D2016B017C0180919D018093BB005F
:1006C0008091C4019091C501A091C601B091C7016C
:1006D000892B8A2B8B2BA1F00E94D2010091C4019F
:1006E0001091C5012091C6013091C7016C197D0997
:1006F0008E099F09061717072807390708F442C013
:100700008091BC0083FDD8CF85EC8093BC000E9413
:10071000D2016B017C018091C201823009F450C08A
:100720008091C0018F3F09F46FC08091C001803279
:1007300009F46CC08091C001803309F469C084E081
:1007400026C08091C4019091C501A091C601B091CD
:10075000C701892B8A2B8B2B09F484CF0E94D201ED
:100760008090C4019090C501A090C601B090C701CF
:100770006C197D098E099F0986169706A806B90689
:1007800008F070CF8091C3010E94F90285E01092B9
:10079000C9011092EB011092C801DF91CF911F9116
:1007A0000F91FF90EF90DF90CF90BF90AF909F9010
:1007B0008F9008959D9191938F5F69CF85EEA5CF1E
:1007C0008091C4019091C501A091C601B091C7016B
:1007D000892B8A2B8B2B09F49ECF0E94D20100918A
:1007E000C4011091C5012091C6013091C7016C1957
:1007F0007D098E099F09061717072807390708F092
:100800008ACFC0CF81E0C3CF80E0C1CF82E0BFCF2D
:1008100083E0BDCF0F931F93CF93DF938A01E9014C
:10082000209711F4C9E8D2E091E09093C801809339
:10083000EA011092C9011092EB01E881F98101905F
:10084000F081E02DCE010995E881F9810190F081D8
:10085000E02DD8016C91CE01099581E00E941A0328
:1008600091E0811190E0892FDF91CF911F910F913D
:1008700008950895E091920180919101E81730F474
:10088000F0E0E459FE4F808190E008958FEF9FEFF4
:10089000089590919201809191012FEF3FEF981769
:1008A00048F4E92FF0E0E459FE4F208130E09F5FEB
:1008B00090939201C90108958091910190919201C4
:1008C000891B990B0895CF92DF92EF92FF920F93BD
:1008D0001F93CF93DF937C01CB018A012091C80144
:1008E000222389F0EB016B01C40ED51ECC15DD056A
:1008F00069F06991D701ED91FC910190F081E02DB3
:10090000C7010995F3CF642F0E94B402C801DF919B
:10091000CF911F910F91FF90EF90DF90CF900895AE
:10092000CF93DF931F92CDB7DEB769832091C801C3
:100930002223F9F02091EB01203258F021E030E041
:10094000FC013383228390E080E00F90DF91CF9110
:1009500008958091C901E82FF0E0E653FE4F998198
:1009600090838F5F8093C9018093EB0181E090E0D9
:10097000ECCF61E0CE0101960E94B402F7CF90E087
:1009800080E00895CF93DF93FC0101900020E9F708
:100990003197AF01481B590BBC018CEE91E00E94CE
:1009A000F901EC0142E050E064E271E08CEE91E08C
:1009B0000E94F9018C0F9D1FDF91CF9108952F9216
:1009C0003F924F925F926F927F928F929F92AF92DF
:1009D000BF92CF92DF92EF92FF920F931F93CF932C
:1009E000DF93CDB7DEB72F970FB6F894DEBF0FBEFB
:1009F000CDBF8C836F8349833987288748018FB7A0
:100A0000F894A0909401B0909501C0909601D09078
:100A100097018FBFE114F10421F489E8E82E82E008
:100A2000F82E2C81220F2E833981832F90E0432FC3
:100A300041954D83132F312C212C1F869B838A8354
:100A400001E0C401B0E0A0E08A879B87AC87BD8746
:100A5000AA81BB812A163B060CF01AC10093C8017B
:100A6000BC81B093EA011092C9011092EB01D70149
:100A7000ED91FC910190F081E02D6F81C701099506
:100A800081E00E941A030E94D2012B013C01809157
:100A9000C20181116DC01E87113210F0B0E2BE8715
:100AA0000093C2010093C1012FEF2093C001109267
:100AB000BF018E8581508093BE0100939D0180917E
:100AC0009D013E81832B80939D0180919C0181300B
:100AD00009F098C010929C010E94D2012B013C01A8
:100AE00080919D018093BB008091C4019091C501CC
:100AF000A091C601B091C701892B8A2B8B2BA1F045
:100B00000E94D2012091C4013091C5014091C601DB
:100B10005091C70164197509860997092617370787
:100B20004807590708F445C08091BC0083FDD8CF21
:100B300045EC4093BC000E94D2012B013C01809106
:100B4000C201813009F462C08091BF019E8589177E
:100B500018F4A091BF01AE87EEE9F1E0ACE6B1E098
:100B600080E02E85821751F191919D938F5FF9CF8F
:100B70008091C4019091C501A091C601B091C701B7
:100B8000892B8A2B8B2B09F482CF0E94D2012091D2
:100B9000C4013091C5014091C6015091C70164194B
:100BA000750986099709261737074807590708F076
:100BB0006ECF8091C3010E94F9021E8610929201AD
:100BC0003E8530939101D701ED91FC910084F18530
:100BD000E02DC7010995892B09F453C081149104B4
:100BE000B9F5D701ED91FC910284F385E02DC701A1
:100BF0000995E885F985BF85EB0FF11D8083BF5FFF
:100C0000BF87E1CF55EE5093BC0095CF8091C401D2
:100C10009091C501A091C601B091C701892B8A2B83
:100C20008B2B09F48CCF0E94D2012091C40130910A
:100C3000C5014091C6015091C70164197509860923
:100C40009709261737074807590708F078CFB1CF1B
:100C50002FB7F8948091940190919501A0919601FD
:100C6000B09197012FBF8A199B09AC09BD092A854C
:100C70003B854C855D8582179307A407B50708F46B
:100C8000B0CF4A815B81240E351E5D81150FE0CE09
:100C900081149104E1F02FB7F89480919401909120
:100CA0009501A0919601B09197012FBF8A199B09D8
:100CB000AC09BD09B12CA12C88159905AA05BB0565
:100CC00030F08F859981891710F4AFEFAF878F854A
:100CD0002F960FB6F894DEBF0FBECDBFDF91CF9138
:100CE0001F910F91FF90EF90DF90CF90BF90AF904A
:100CF0009F908F907F906F905F904F903F902F903C
:100D000008957F928F929F92AF92BF92CF92DF927F
:100D1000EF92FF920F931F93CF93DF9300D0CDB745
:100D2000DEB7A82E962E742E822EB02E08EE13E07B
:100D30009E012E5F3F4F41E00E94DF048823C1F1F6
:100D4000872D8819990BAC014F5F5F4F81E090E0D0
:100D500002C0880F991F8A94E2F70197042E01C000
:100D6000880F0A94EAF72B2D01C0220F4A95EAF763
:100D7000B82EB0949A81B92282238B298A838983E1
:100D80009701AE014F5F5F4F692D8A2D0E940A04C3
:100D90000F900F90DF91CF911F910F91FF90EF90E7
:100DA000DF90CF90BF90AF909F908F907F900895ED
:100DB00080E0EECF85ED8093BC008091C4019091DE
:100DC000C501A091C601B091C7010796A11DB11D33
:100DD00023E0B695A795979587952A95D1F7209109
:100DE000BC0024FD03C01092C20108954091C401CB
:100DF0005091C5016091C6017091C701452B462BEA
:100E0000472B69F30097A105B10541F02AE22A9525
:100E1000F1F700C00197A109B109E1CF8091C301A9
:100E20000C94F9021F920F920FB60F9211242F9378
:100E30003F938F939F93AF93BF9380919401909131
:100E40009501A0919601B09197013091930123E013
:100E5000230F2D3758F50196A11DB11D2093930145
:100E60008093940190939501A0939601B09397017C
:100E70008091980190919901A0919A01B0919B0164
:100E80000196A11DB11D8093980190939901A093A3
:100E90009A01B0939B01BF91AF919F918F913F9128
:100EA0002F910F900FBE0F901F90189526E8230FDB
:100EB0000296A11DB11DD2CF1F920F920FB60F92B5
:100EC00011242F933F934F935F936F937F938F934F
:100ED0009F93AF93BF93EF93FF938CEE91E00E94AB
:100EE000E300FF91EF91BF91AF919F918F917F911F
:100EF0006F915F914F913F912F910F900FBE0F9087
:100F00001F9018951F920F920FB60F9211242F93D6
:100F10008F939F93EF93FF93E091FC01F091FD017C
:100F20008081E0910202F091030282FD1BC090815A
:100F3000809105028F5F8F7320910602821741F026
:100F4000E0910502F0E0E451FE4F958F8093050299
:100F5000FF91EF919F918F912F910F900FBE0F9066
:100F60001F9018958081F4CF1F920F920FB60F92A9
:100F700011242F933F934F935F936F937F938F939E
:100F80009F93AF93BF93CF93DF93EF93FF938091A2
:100F90008C01C091B902D0E087FF24C01092850077
:100FA0001092840080918C018F5F80938C018091DE
:100FB0008C01082E000C990B8C179D0724F480914E
:100FC0008C018C30C4F1809184009091850004964E
:100FD00080349C4908F47AC0809184009091850007
:100FE000049676C080918C01082E000C990B8C170A
:100FF0009D07C4F6E0918C018E2FEE0F990BFC013A
:10100000EE0FFF1FE80FF91FEB56FD4F808186FFA3
:10101000C9CFE0918C018E2FEE0F990BFC01EE0FE2
:10102000FF1FE80FF91FEB56FD4F808160E08F73C3
:101030000E948601B7CF2091840030918500E09115
:101040008C018E2FEE0F990BFC01EE0FFF1FE80FA6
:10105000F91FEB56FD4F81819281820F931F909370
:10106000890080938800E0918C018E2FEE0F990B00
:10107000FC01EE0FFF1FE80FF91FEB56FD4F8081BB
:1010800086FF11C0E0918C018E2FEE0F990BFC01B1
:10109000EE0FFF1FE80FF91FEB56FD4F808161E057
:1010A0008F730E948601FF91EF91DF91CF91BF91E5
:1010B000AF919F918F917F916F915F914F913F91F0
:1010C0002F910F900FBE0F901F90189580E49CE910
:1010D00090938900809388008FEF80938C01E3CFF9
:1010E0001F920F920FB60F9211242F933F934F939D
:1010F0005F936F937F938F939F93AF93BF93EF9380
:10110000FF938091B900887F803609F44AC0F0F5DA
:10111000883209F4A7C018F5803109F49BC0B8F4EF
:10112000882309F4F9C0883009F494C0FF91EF9145
:10113000BF91AF919F918F917F916F915F914F91EF
:101140003F912F910F900FBE0F901F9018958831EF
:1011500009F488C0803251F78093C00114C08034F4
:1011600009F49DC040F48033B9F38833F9F68093D5
:10117000C00185ECB0C0803509F485C0883509F41C
:1011800096C0883499F60E94DA06D0CF883909F4DF
:101190008CC038F5883729F050F4883611F0803744
:1011A00029F683E08093C20110926B0157C0883802
:1011B00009F47BC0803919F0803809F0B7CF8091ED
:1011C0006B01803208F071C0E0916B0181E08E0FFD
:1011D00080936B018091BB00F0E0E55BFE4F808364
:1011E0003DC0803B39F0E0F4803A09F479C0883A98
:1011F00009F09CCF84E08093C20110924A011092C2
:101200004901E0918F01F091900109958091490188
:1012100081110FC081E0809349011092290109C01A
:10122000803C09F4A6CF883C09F4A3CF883B09F0A1
:101230007DCFE0914A0181E08E0F80934A01F0E07A
:10124000E75DFE4F80818093BB0090914A018091C1
:10125000490129C080919D018093BB0085EC80935A
:10126000BC0064CF9091BF018091BE01981758F5E2
:10127000E091BF0181E08E0F8093BF01F0E0E25664
:10128000FE4F8081E9CFE091BF0181E08E0F809316
:10129000BF018091BB00F0E0E256FE4F8083909149
:1012A000BF018091BE019817C8F285E8D8CFE091C0
:1012B000BF0181E08E0F8093BF018091BB00F0E001
:1012C000E256FE4F80838091C10181115CCF81E0A5
:1012D00080939C0184EA8093BC001092C20126CFC7
:1012E00085EC8093BC001092C20180916B0180322A
:1012F00030F4E0916B01F0E0E55BFE4F108260910D
:101300006B0170E0E0918D01F0918E018BE491E032
:10131000099510926B010ACF1092C00134CF109240
:10132000EF011092EE0188EE93E0A0E0B0E0809330
:10133000F0019093F101A093F201B093F30124E046
:1013400031E03093ED012093EC0125EC30E0309357
:10135000F9012093F80124EC30E03093FB01209355
:10136000FA0120EC30E03093FD012093FC0121ECE8
:1013700030E03093FF012093FE0122EC30E0309307
:1013800001022093000226EC30E030930302209308
:1013900002021092050210920602109207021092A9
:1013A000080210928C0210928B0280938D0290930F
:1013B0008E02A0938F02B093900286E191E0909309
:1013C0008A028093890288E68093C0021092C2024A
:1013D0001092C10288EF9AE2A0E0B0E08093D102BF
:1013E0009093D202A093D302B093D4028091B90219
:1013F0008C3048F591E0980F9093B9028093BD022C
:1014000090E0FC01EE0FFF1FE80FF91FEB56FD4FB8
:1014100088EB9BE0928381838091B9028C30B8F491
:1014200091E0980F9093B9028093BA0290E0FC018A
:10143000EE0FFF1FE80FF91FEB56FD4F88EB9BE007
:101440009283818308958FEF8093BD02E5CF8FEF64
:101450008093BA020895CF93DF9300D0CDB7DEB763
:10146000789484B5826084BD84B5816084BD85B57F
:10147000826085BD85B5816085BD80916E0081608B
:1014800080936E0010928100809181008260809331
:101490008100809181008160809381008091800033
:1014A0008160809380008091B10084608093B1005E
:1014B0008091B00081608093B00080917A00846058
:1014C00080937A0080917A00826080937A00809184
:1014D0007A00816080937A0080917A00806880939E
:1014E0007A001092C1001092920110929101109214
:1014F000C9011092EB010E94DB0287EF91E090930B
:10150000900180938F0188EF91E090938E018093FA
:101510008D01E090C102F090C20201E023E042E0C0
:101520006BE68091C0020E94810680E090E0AAEF05
:10153000BBE38093D9029093DA02A093DB02B093CD
:10154000DC02E090C102F090C20200E022E044E040
:101550006BE18091C0020E94810680E090E0A0E8EB
:10156000B8E38093D5029093D602A093D702B093AC
:10157000D802E090C102F090C20222E044E06CE1A7
:101580008091C0020E948106A090C102B090C20268
:10159000D090C002750108EE13E09E012E5F3F4F10
:1015A00041E06BE68D2D0E94DF048A818F7B8A8368
:1015B00089839501AE014F5F5F4F6BE68D2D0E94D1
:1015C0000A048091BD028C3008F042C089E00E947C
:1015D00087008091BD02282F30E0F901EE0FFF1F38
:1015E000E20FF31FEB56FD4F9081907C9960908342
:1015F0001092BE021092BF022CE0622F0E94540C87
:1016000090E0829FB001112430E020E0AB01420F56
:10161000531FFA01EE0FFF1FE40FF51FEB56FD4FAE
:10162000408146FD07C02F5F3F4F2C30310571F7D9
:101630000E94A202E091BD028E2F90E0FC01EE0F0D
:10164000FF1FE80FF91FEB56FD4F808180648083F8
:101650008091BA028C3008F042C08AE00E94870074
:101660008091BA02282F30E0F901EE0FFF1FE20F40
:10167000F31FEB56FD4F9081907C9A6090831092FF
:10168000BB021092BC022CE0622F0E94540C90E02E
:10169000829FB001112430E020E0AB01420F531FC4
:1016A000FA01EE0FFF1FE40FF51FEB56FD4F4081CF
:1016B00046FD07C02F5F3F4F2C30310571F70E9468
:1016C000A202E091BA028E2F90E0FC01EE0FFF1F04
:1016D000E80FF91FEB56FD4F80818064808390ED09
:1016E000892E94E8992EA12CB12C20E0222E20E006
:1016F000322EE090C102F090C20208EE13E023EC1B
:1017000032E046E06BE38091C0020E94DF0400916A
:10171000C3021091C4021027012710272091C5028F
:101720003091C602322723273227032E000C440BA8
:10173000550B28593D4B4F4F5F4FA4EBB0E00E9433
:10174000100CA50194010E94F10BB9018DEB92E000
:101750000E942602012E000C220B330BA9019801D6
:1017600028593D4B4F4F5F4FA4EBB0E00E94100C47
:10177000A50194010E94F10BB9018AEB92E00E944D
:1017800026020E94D2012B013C018FE0C82ED12CF1
:10179000E12CF12C0E94D201641975098609970980
:1017A000683E734081059105A8F321E0C21AD10873
:1017B000E108F10888EE480E83E0581E611C711C98
:1017C000C114D104E104F10429F72114310409F40E
:1017D00090CF0E947201882309F48BCF0E940000F1
:1017E00088CF052E97FB1EF400940E94080C57FD2D
:1017F00007D00E94230C07FC03D04EF40C94080C75
:1018000050954095309521953F4F4F4F5F4F08952C
:1018100090958095709561957F4F8F4F9F4F08955C
:101820000E94450CA59F900DB49F900DA49F800D24
:10183000911D11240895B7FF0C94100C0E94100CF8
:10184000821B930B0895A1E21A2EAA1BBB1BFD015C
:101850000DC0AA1FBB1FEE1FFF1FA217B307E4078F
:10186000F50720F0A21BB30BE40BF50B661F771FE7
:10187000881F991F1A9469F76095709580959095C7
:101880009B01AC01BD01CF010895A29FB001B39FA0
:10189000C001A39F700D811D1124911DB29F700D79
:1018A000811D1124911D0895991B79E004C0991F91
:1018B000961708F0961B881F7A95C9F780950895AA
:1018C000EE0FFF1F0590F491E02D0994F894FFCFDF
:1018D000000000000501F901A6005201D700B50083
:1018E000C9000000000090046304BF0439045C04D4
:0818F00049043A040D0A00004E
:00000001FF
